{
  "_format": "hh-sol-artifact-1",
  "contractName": "Campaign",
  "sourceName": "contracts/Campaign.sol",
  "abi": [
    {
      "inputs": [
        {
          "internalType": "string",
          "name": "campaignTitle",
          "type": "string"
        },
        {
          "internalType": "uint256",
          "name": "targetCampaignAmount",
          "type": "uint256"
        },
        {
          "internalType": "string",
          "name": "imageURI",
          "type": "string"
        },
        {
          "internalType": "string",
          "name": "descripstionURI",
          "type": "string"
        },
        {
          "internalType": "address",
          "name": "campaignOwner",
          "type": "address"
        },
        {
          "internalType": "uint256",
          "name": "campaignDeadline",
          "type": "uint256"
        },
        {
          "internalType": "string",
          "name": "campaignCategory",
          "type": "string"
        }
      ],
      "stateMutability": "nonpayable",
      "type": "constructor"
    },
    {
      "anonymous": false,
      "inputs": [
        {
          "indexed": true,
          "internalType": "uint256",
          "name": "timestamp",
          "type": "uint256"
        }
      ],
      "name": "Closed",
      "type": "event"
    },
    {
      "anonymous": false,
      "inputs": [
        {
          "indexed": true,
          "internalType": "address",
          "name": "recipient",
          "type": "address"
        },
        {
          "indexed": false,
          "internalType": "uint256",
          "name": "amount",
          "type": "uint256"
        },
        {
          "indexed": true,
          "internalType": "uint256",
          "name": "timestamp",
          "type": "uint256"
        }
      ],
      "name": "Withdrawn",
      "type": "event"
    },
    {
      "anonymous": false,
      "inputs": [
        {
          "indexed": true,
          "internalType": "address",
          "name": "donar",
          "type": "address"
        },
        {
          "indexed": true,
          "internalType": "uint256",
          "name": "amount",
          "type": "uint256"
        },
        {
          "indexed": true,
          "internalType": "uint256",
          "name": "timestamp",
          "type": "uint256"
        }
      ],
      "name": "donated",
      "type": "event"
    },
    {
      "inputs": [],
      "name": "category",
      "outputs": [
        {
          "internalType": "string",
          "name": "",
          "type": "string"
        }
      ],
      "stateMutability": "view",
      "type": "function"
    },
    {
      "inputs": [],
      "name": "closeCampaign",
      "outputs": [],
      "stateMutability": "nonpayable",
      "type": "function"
    },
    {
      "inputs": [],
      "name": "closed",
      "outputs": [
        {
          "internalType": "bool",
          "name": "",
          "type": "bool"
        }
      ],
      "stateMutability": "view",
      "type": "function"
    },
    {
      "inputs": [],
      "name": "currentDonation",
      "outputs": [
        {
          "internalType": "uint256",
          "name": "",
          "type": "uint256"
        }
      ],
      "stateMutability": "view",
      "type": "function"
    },
    {
      "inputs": [],
      "name": "deadline",
      "outputs": [
        {
          "internalType": "uint256",
          "name": "",
          "type": "uint256"
        }
      ],
      "stateMutability": "view",
      "type": "function"
    },
    {
      "inputs": [],
      "name": "description",
      "outputs": [
        {
          "internalType": "string",
          "name": "",
          "type": "string"
        }
      ],
      "stateMutability": "view",
      "type": "function"
    },
    {
      "inputs": [],
      "name": "donate",
      "outputs": [],
      "stateMutability": "payable",
      "type": "function"
    },
    {
      "inputs": [],
      "name": "image",
      "outputs": [
        {
          "internalType": "string",
          "name": "",
          "type": "string"
        }
      ],
      "stateMutability": "view",
      "type": "function"
    },
    {
      "inputs": [],
      "name": "owner",
      "outputs": [
        {
          "internalType": "address payable",
          "name": "",
          "type": "address"
        }
      ],
      "stateMutability": "view",
      "type": "function"
    },
    {
      "inputs": [],
      "name": "targetAmount",
      "outputs": [
        {
          "internalType": "uint256",
          "name": "",
          "type": "uint256"
        }
      ],
      "stateMutability": "view",
      "type": "function"
    },
    {
      "inputs": [],
      "name": "title",
      "outputs": [
        {
          "internalType": "string",
          "name": "",
          "type": "string"
        }
      ],
      "stateMutability": "view",
      "type": "function"
    },
    {
      "inputs": [],
      "name": "withdraw",
      "outputs": [],
      "stateMutability": "nonpayable",
      "type": "function"
    }
  ],
  "bytecode": "0x60806040523480156200001157600080fd5b50604051620015fa380380620015fa83398181016040528101906200003791906200030e565b86600090816200004891906200067e565b508560018190555084600290816200006191906200067e565b5083600390816200007391906200067e565b5082600460006101000a81548173ffffffffffffffffffffffffffffffffffffffff021916908373ffffffffffffffffffffffffffffffffffffffff160217905550816006819055508060089081620000cd91906200067e565b505050505050505062000765565b6000604051905090565b600080fd5b600080fd5b600080fd5b600080fd5b6000601f19601f8301169050919050565b7f4e487b7100000000000000000000000000000000000000000000000000000000600052604160045260246000fd5b6200014482620000f9565b810181811067ffffffffffffffff821117156200016657620001656200010a565b5b80604052505050565b60006200017b620000db565b905062000189828262000139565b919050565b600067ffffffffffffffff821115620001ac57620001ab6200010a565b5b620001b782620000f9565b9050602081019050919050565b60005b83811015620001e4578082015181840152602081019050620001c7565b60008484015250505050565b60006200020762000201846200018e565b6200016f565b905082815260208101848484011115620002265762000225620000f4565b5b62000233848285620001c4565b509392505050565b600082601f830112620002535762000252620000ef565b5b815162000265848260208601620001f0565b91505092915050565b6000819050919050565b62000283816200026e565b81146200028f57600080fd5b50565b600081519050620002a38162000278565b92915050565b600073ffffffffffffffffffffffffffffffffffffffff82169050919050565b6000620002d682620002a9565b9050919050565b620002e881620002c9565b8114620002f457600080fd5b50565b6000815190506200030881620002dd565b92915050565b600080600080600080600060e0888a03121562000330576200032f620000e5565b5b600088015167ffffffffffffffff811115620003515762000350620000ea565b5b6200035f8a828b016200023b565b9750506020620003728a828b0162000292565b965050604088015167ffffffffffffffff811115620003965762000395620000ea565b5b620003a48a828b016200023b565b955050606088015167ffffffffffffffff811115620003c857620003c7620000ea565b5b620003d68a828b016200023b565b9450506080620003e98a828b01620002f7565b93505060a0620003fc8a828b0162000292565b92505060c088015167ffffffffffffffff81111562000420576200041f620000ea565b5b6200042e8a828b016200023b565b91505092959891949750929550565b600081519050919050565b7f4e487b7100000000000000000000000000000000000000000000000000000000600052602260045260246000fd5b600060028204905060018216806200049057607f821691505b602082108103620004a657620004a562000448565b5b50919050565b60008190508160005260206000209050919050565b60006020601f8301049050919050565b600082821b905092915050565b600060088302620005107fffffffffffffffffffffffffffffffffffffffffffffffffffffffffffffffff82620004d1565b6200051c8683620004d1565b95508019841693508086168417925050509392505050565b6000819050919050565b60006200055f6200055962000553846200026e565b62000534565b6200026e565b9050919050565b6000819050919050565b6200057b836200053e565b620005936200058a8262000566565b848454620004de565b825550505050565b600090565b620005aa6200059b565b620005b781848462000570565b505050565b5b81811015620005df57620005d3600082620005a0565b600181019050620005bd565b5050565b601f8211156200062e57620005f881620004ac565b6200060384620004c1565b8101602085101562000613578190505b6200062b6200062285620004c1565b830182620005bc565b50505b505050565b600082821c905092915050565b6000620006536000198460080262000633565b1980831691505092915050565b60006200066e838362000640565b9150826002028217905092915050565b62000689826200043d565b67ffffffffffffffff811115620006a557620006a46200010a565b5b620006b1825462000477565b620006be828285620005e3565b600060209050601f831160018114620006f65760008415620006e1578287015190505b620006ed858262000660565b8655506200075d565b601f1984166200070686620004ac565b60005b82811015620007305784890151825560018201915060208501945060208101905062000709565b868310156200075057848901516200074c601f89168262000640565b8355505b6001600288020188555050505b505050505050565b610e8580620007756000396000f3fe6080604052600436106100a75760003560e01c8063953b8fb811610064578063953b8fb81461019a578063d150f835146101c5578063d7557f18146101f0578063ed88c68e14610207578063ef430aa614610211578063f3ccaac01461023c576100a7565b806329dcb0cf146100ac5780633ccfd60b146100d75780634a79d50c146100ee578063597e1fb5146101195780637284e416146101445780638da5cb5b1461016f575b600080fd5b3480156100b857600080fd5b506100c1610267565b6040516100ce91906108ed565b60405180910390f35b3480156100e357600080fd5b506100ec61026d565b005b3480156100fa57600080fd5b506101036103e6565b6040516101109190610998565b60405180910390f35b34801561012557600080fd5b5061012e610474565b60405161013b91906109d5565b60405180910390f35b34801561015057600080fd5b50610159610487565b6040516101669190610998565b60405180910390f35b34801561017b57600080fd5b50610184610515565b6040516101919190610a31565b60405180910390f35b3480156101a657600080fd5b506101af61053b565b6040516101bc91906108ed565b60405180910390f35b3480156101d157600080fd5b506101da610541565b6040516101e791906108ed565b60405180910390f35b3480156101fc57600080fd5b50610205610547565b005b61020f6106bc565b005b34801561021d57600080fd5b506102266107b8565b6040516102339190610998565b60405180910390f35b34801561024857600080fd5b50610251610846565b60405161025e9190610998565b60405180910390f35b60065481565b600460009054906101000a900473ffffffffffffffffffffffffffffffffffffffff1673ffffffffffffffffffffffffffffffffffffffff163373ffffffffffffffffffffffffffffffffffffffff16146102fd576040517f08c379a00000000000000000000000000000000000000000000000000000000081526004016102f490610abe565b60405180910390fd5b60004711610340576040517f08c379a000000000000000000000000000000000000000000000000000000000815260040161033790610b2a565b60405180910390fd5b600047905060006005819055503373ffffffffffffffffffffffffffffffffffffffff166108fc829081150290604051600060405180830381858888f19350505050158015610393573d6000803e3d6000fd5b50423373ffffffffffffffffffffffffffffffffffffffff167f92ccf450a286a957af52509bc1c9939d1a6a481783e142e41e2499f0bb66ebc6836040516103db91906108ed565b60405180910390a350565b600080546103f390610b79565b80601f016020809104026020016040519081016040528092919081815260200182805461041f90610b79565b801561046c5780601f106104415761010080835404028352916020019161046c565b820191906000526020600020905b81548152906001019060200180831161044f57829003601f168201915b505050505081565b600760009054906101000a900460ff1681565b6003805461049490610b79565b80601f01602080910402602001604051908101604052809291908181526020018280546104c090610b79565b801561050d5780601f106104e25761010080835404028352916020019161050d565b820191906000526020600020905b8154815290600101906020018083116104f057829003601f168201915b505050505081565b600460009054906101000a900473ffffffffffffffffffffffffffffffffffffffff1681565b60015481565b60055481565b3373ffffffffffffffffffffffffffffffffffffffff1663429b62e5600460009054906101000a900473ffffffffffffffffffffffffffffffffffffffff166040518263ffffffff1660e01b81526004016105a29190610c09565b602060405180830381865afa1580156105bf573d6000803e3d6000fd5b505050506040513d601f19601f820116820180604052508101906105e39190610c55565b610622576040517f08c379a000000000000000000000000000000000000000000000000000000000815260040161061990610cf4565b60405180910390fd5b600760009054906101000a900460ff1615610672576040517f08c379a000000000000000000000000000000000000000000000000000000000815260040161066990610d60565b60405180910390fd5b6001600760006101000a81548160ff021916908315150217905550427f6cc09e7b5c3e49861ebe8f6867e1618fbfc14c8d0e968fde37c4243ca02a6f8360405160405180910390a2565b6006544210610700576040517f08c379a00000000000000000000000000000000000000000000000000000000081526004016106f790610dcc565b60405180910390fd5b600034905080600560008282546107179190610e1b565b9250508190555042813373ffffffffffffffffffffffffffffffffffffffff167fe6add99d06d9ad7fc456e746aa162eed6211c5002ef2dacdd67b8d2016822fba60405160405180910390a460065442106107b5576001600760006101000a81548160ff021916908315150217905550427f6cc09e7b5c3e49861ebe8f6867e1618fbfc14c8d0e968fde37c4243ca02a6f8360405160405180910390a25b50565b600880546107c590610b79565b80601f01602080910402602001604051908101604052809291908181526020018280546107f190610b79565b801561083e5780601f106108135761010080835404028352916020019161083e565b820191906000526020600020905b81548152906001019060200180831161082157829003601f168201915b505050505081565b6002805461085390610b79565b80601f016020809104026020016040519081016040528092919081815260200182805461087f90610b79565b80156108cc5780601f106108a1576101008083540402835291602001916108cc565b820191906000526020600020905b8154815290600101906020018083116108af57829003601f168201915b505050505081565b6000819050919050565b6108e7816108d4565b82525050565b600060208201905061090260008301846108de565b92915050565b600081519050919050565b600082825260208201905092915050565b60005b83811015610942578082015181840152602081019050610927565b60008484015250505050565b6000601f19601f8301169050919050565b600061096a82610908565b6109748185610913565b9350610984818560208601610924565b61098d8161094e565b840191505092915050565b600060208201905081810360008301526109b2818461095f565b905092915050565b60008115159050919050565b6109cf816109ba565b82525050565b60006020820190506109ea60008301846109c6565b92915050565b600073ffffffffffffffffffffffffffffffffffffffff82169050919050565b6000610a1b826109f0565b9050919050565b610a2b81610a10565b82525050565b6000602082019050610a466000830184610a22565b92915050565b7f4f6e6c7920746865206f776e65722063616e2063616c6c20746869732066756e60008201527f6374696f6e2e0000000000000000000000000000000000000000000000000000602082015250565b6000610aa8602683610913565b9150610ab382610a4c565b604082019050919050565b60006020820190508181036000830152610ad781610a9b565b9050919050565b7f4e6f2066756e647320617661696c61626c6520746f2077697468647261772e00600082015250565b6000610b14601f83610913565b9150610b1f82610ade565b602082019050919050565b60006020820190508181036000830152610b4381610b07565b9050919050565b7f4e487b7100000000000000000000000000000000000000000000000000000000600052602260045260246000fd5b60006002820490506001821680610b9157607f821691505b602082108103610ba457610ba3610b4a565b5b50919050565b6000819050919050565b6000610bcf610bca610bc5846109f0565b610baa565b6109f0565b9050919050565b6000610be182610bb4565b9050919050565b6000610bf382610bd6565b9050919050565b610c0381610be8565b82525050565b6000602082019050610c1e6000830184610bfa565b92915050565b600080fd5b610c32816109ba565b8114610c3d57600080fd5b50565b600081519050610c4f81610c29565b92915050565b600060208284031215610c6b57610c6a610c24565b5b6000610c7984828501610c40565b91505092915050565b7f4f6e6c792061646d696e2063616e2063616c6c20746869732066756e6374696f60008201527f6e2e000000000000000000000000000000000000000000000000000000000000602082015250565b6000610cde602283610913565b9150610ce982610c82565b604082019050919050565b60006020820190508181036000830152610d0d81610cd1565b9050919050565b7f43616d706169676e20697320616c726561647920636c6f7365642e0000000000600082015250565b6000610d4a601b83610913565b9150610d5582610d14565b602082019050919050565b60006020820190508181036000830152610d7981610d3d565b9050919050565b7f43616d706169676e2068617320656e6465642100000000000000000000000000600082015250565b6000610db6601383610913565b9150610dc182610d80565b602082019050919050565b60006020820190508181036000830152610de581610da9565b9050919050565b7f4e487b7100000000000000000000000000000000000000000000000000000000600052601160045260246000fd5b6000610e26826108d4565b9150610e31836108d4565b9250828201905080821115610e4957610e48610dec565b5b9291505056fea2646970667358221220420afb81edcc80e522d71605553a8e65dea5f73944ab04d3783b35f38e86a6dd64736f6c63430008130033",
  "linkReferences": {},
  "deployedLinkReferences": {}
}