{
  "_format": "hh-sol-artifact-1",
  "contractName": "CampaignFactory",
  "sourceName": "contracts/Campaign.sol",
  "abi": [
    {
      "inputs": [],
      "stateMutability": "nonpayable",
      "type": "constructor"
    },
    {
      "anonymous": false,
      "inputs": [
        {
          "indexed": false,
          "internalType": "string",
          "name": "title",
          "type": "string"
        },
        {
          "indexed": false,
          "internalType": "uint256",
          "name": "targetAmount",
          "type": "uint256"
        },
        {
          "indexed": true,
          "internalType": "address",
          "name": "owner",
          "type": "address"
        },
        {
          "indexed": false,
          "internalType": "address",
          "name": "campaignAddress",
          "type": "address"
        },
        {
          "indexed": false,
          "internalType": "string",
          "name": "imageURI",
          "type": "string"
        },
        {
          "indexed": true,
          "internalType": "uint256",
          "name": "timestamp",
          "type": "uint256"
        },
        {
          "indexed": false,
          "internalType": "string",
          "name": "category",
          "type": "string"
        },
        {
          "indexed": false,
          "internalType": "uint256",
          "name": "deadline",
          "type": "uint256"
        }
      ],
      "name": "campaignCreated",
      "type": "event"
    },
    {
      "inputs": [
        {
          "internalType": "address",
          "name": "",
          "type": "address"
        }
      ],
      "name": "admins",
      "outputs": [
        {
          "internalType": "bool",
          "name": "",
          "type": "bool"
        }
      ],
      "stateMutability": "view",
      "type": "function"
    },
    {
      "inputs": [
        {
          "internalType": "string",
          "name": "campaignTitle",
          "type": "string"
        },
        {
          "internalType": "uint256",
          "name": "targetAmount",
          "type": "uint256"
        },
        {
          "internalType": "string",
          "name": "imageURI",
          "type": "string"
        },
        {
          "internalType": "string",
          "name": "category",
          "type": "string"
        },
        {
          "internalType": "string",
          "name": "descriptionURI",
          "type": "string"
        },
        {
          "internalType": "uint256",
          "name": "deadline",
          "type": "uint256"
        }
      ],
      "name": "createCampaign",
      "outputs": [],
      "stateMutability": "nonpayable",
      "type": "function"
    },
    {
      "inputs": [],
      "name": "getActiveCampaigns",
      "outputs": [
        {
          "internalType": "address[]",
          "name": "",
          "type": "address[]"
        }
      ],
      "stateMutability": "view",
      "type": "function"
    },
    {
      "inputs": [],
      "name": "getCampaignStatistics",
      "outputs": [
        {
          "internalType": "uint256",
          "name": "totalCampaigns",
          "type": "uint256"
        },
        {
          "internalType": "uint256",
          "name": "activeCampaigns",
          "type": "uint256"
        },
        {
          "internalType": "uint256",
          "name": "totalDonations",
          "type": "uint256"
        }
      ],
      "stateMutability": "view",
      "type": "function"
    },
    {
      "inputs": [
        {
          "internalType": "address",
          "name": "campaignAddress",
          "type": "address"
        }
      ],
      "name": "markCampaignInactive",
      "outputs": [],
      "stateMutability": "nonpayable",
      "type": "function"
    },
    {
      "inputs": [
        {
          "internalType": "uint256",
          "name": "",
          "type": "uint256"
        }
      ],
      "name": "startedCampaigns",
      "outputs": [
        {
          "internalType": "address",
          "name": "",
          "type": "address"
        }
      ],
      "stateMutability": "view",
      "type": "function"
    }
  ],
  "bytecode": "0x608060405234801561001057600080fd5b5060018060003373ffffffffffffffffffffffffffffffffffffffff1673ffffffffffffffffffffffffffffffffffffffff16815260200190815260200160002060006101000a81548160ff0219169083151502179055506127ee806100776000396000f3fe60806040523480156200001157600080fd5b50600436106200006a5760003560e01c80631cf65c10146200006f578063429b62e5146200008f5780635660214b14620000c5578063c362b15614620000e5578063d5c5db391462000107578063e51a841e146200012b575b600080fd5b6200008d60048036038101906200008791906200092f565b62000161565b005b620000ad6004803603810190620000a791906200092f565b6200025b565b604051620000bc91906200097e565b60405180910390f35b620000e36004803603810190620000dd919062000b38565b6200027b565b005b620000ef6200038b565b604051620000fe919062000d1e565b60405180910390f35b620001116200065d565b604051620001229392919062000d53565b60405180910390f35b62000149600480360381019062000143919062000d90565b62000868565b60405162000158919062000dd3565b60405180910390f35b600160003373ffffffffffffffffffffffffffffffffffffffff1673ffffffffffffffffffffffffffffffffffffffff16815260200190815260200160002060009054906101000a900460ff16620001f0576040517f08c379a0000000000000000000000000000000000000000000000000000000008152600401620001e79062000e77565b60405180910390fd5b60008190508073ffffffffffffffffffffffffffffffffffffffff1663d7557f186040518163ffffffff1660e01b8152600401600060405180830381600087803b1580156200023e57600080fd5b505af115801562000253573d6000803e3d6000fd5b505050505050565b60016020528060005260406000206000915054906101000a900460ff1681565b6000868686853386896040516200029290620008a8565b620002a4979695949392919062000f11565b604051809103906000f080158015620002c1573d6000803e3d6000fd5b5090506000819080600181540180825580915050600190039060005260206000200160009091909190916101000a81548173ffffffffffffffffffffffffffffffffffffffff021916908373ffffffffffffffffffffffffffffffffffffffff160217905550423373ffffffffffffffffffffffffffffffffffffffff167f19d018403fc558c3177d20a4bac51c386105cf56ab523d087e52fe0ede9d494a8989858a8a896040516200037a9695949392919062000faa565b60405180910390a350505050505050565b60606000805b6000805490508110156200047e5760008181548110620003b657620003b56200102c565b5b9060005260206000200160009054906101000a900473ffffffffffffffffffffffffffffffffffffffff1673ffffffffffffffffffffffffffffffffffffffff1663597e1fb56040518163ffffffff1660e01b8152600401602060405180830381865afa1580156200042c573d6000803e3d6000fd5b505050506040513d601f19601f820116820180604052508101906200045291906200108c565b620004685781806200046490620010ed565b9250505b80806200047590620010ed565b91505062000391565b5060008167ffffffffffffffff8111156200049e576200049d620009b6565b5b604051908082528060200260200182016040528015620004cd5781602001602082028036833780820191505090505b5090506000805b600080549050811015620006535760008181548110620004f957620004f86200102c565b5b9060005260206000200160009054906101000a900473ffffffffffffffffffffffffffffffffffffffff1673ffffffffffffffffffffffffffffffffffffffff1663597e1fb56040518163ffffffff1660e01b8152600401602060405180830381865afa1580156200056f573d6000803e3d6000fd5b505050506040513d601f19601f820116820180604052508101906200059591906200108c565b6200063d5760008181548110620005b157620005b06200102c565b5b9060005260206000200160009054906101000a900473ffffffffffffffffffffffffffffffffffffffff16838381518110620005f257620005f16200102c565b5b602002602001019073ffffffffffffffffffffffffffffffffffffffff16908173ffffffffffffffffffffffffffffffffffffffff168152505081806200063990620010ed565b9250505b80806200064a90620010ed565b915050620004d4565b5081935050505090565b600080600080805490509250600091506000905060005b83811015620008625760008082815481106200069557620006946200102c565b5b9060005260206000200160009054906101000a900473ffffffffffffffffffffffffffffffffffffffff1690508073ffffffffffffffffffffffffffffffffffffffff1663597e1fb56040518163ffffffff1660e01b8152600401602060405180830381865afa1580156200070e573d6000803e3d6000fd5b505050506040513d601f19601f820116820180604052508101906200073491906200108c565b158015620007b357508073ffffffffffffffffffffffffffffffffffffffff166329dcb0cf6040518163ffffffff1660e01b8152600401602060405180830381865afa15801562000789573d6000803e3d6000fd5b505050506040513d601f19601f82011682018060405250810190620007af919062001151565b4211155b15620007ca578380620007c690620010ed565b9450505b8073ffffffffffffffffffffffffffffffffffffffff1663d150f8356040518163ffffffff1660e01b8152600401602060405180830381865afa15801562000816573d6000803e3d6000fd5b505050506040513d601f19601f820116820180604052508101906200083c919062001151565b8362000849919062001183565b92505080806200085990620010ed565b91505062000674565b50909192565b600081815481106200087957600080fd5b906000526020600020016000915054906101000a900473ffffffffffffffffffffffffffffffffffffffff1681565b6115fa80620011bf83390190565b6000604051905090565b600080fd5b600080fd5b600073ffffffffffffffffffffffffffffffffffffffff82169050919050565b6000620008f782620008ca565b9050919050565b6200090981620008ea565b81146200091557600080fd5b50565b6000813590506200092981620008fe565b92915050565b600060208284031215620009485762000947620008c0565b5b6000620009588482850162000918565b91505092915050565b60008115159050919050565b620009788162000961565b82525050565b60006020820190506200099560008301846200096d565b92915050565b600080fd5b600080fd5b6000601f19601f8301169050919050565b7f4e487b7100000000000000000000000000000000000000000000000000000000600052604160045260246000fd5b620009f082620009a5565b810181811067ffffffffffffffff8211171562000a125762000a11620009b6565b5b80604052505050565b600062000a27620008b6565b905062000a358282620009e5565b919050565b600067ffffffffffffffff82111562000a585762000a57620009b6565b5b62000a6382620009a5565b9050602081019050919050565b82818337600083830152505050565b600062000a9662000a908462000a3a565b62000a1b565b90508281526020810184848401111562000ab55762000ab4620009a0565b5b62000ac284828562000a70565b509392505050565b600082601f83011262000ae25762000ae16200099b565b5b813562000af484826020860162000a7f565b91505092915050565b6000819050919050565b62000b128162000afd565b811462000b1e57600080fd5b50565b60008135905062000b328162000b07565b92915050565b60008060008060008060c0878903121562000b585762000b57620008c0565b5b600087013567ffffffffffffffff81111562000b795762000b78620008c5565b5b62000b8789828a0162000aca565b965050602062000b9a89828a0162000b21565b955050604087013567ffffffffffffffff81111562000bbe5762000bbd620008c5565b5b62000bcc89828a0162000aca565b945050606087013567ffffffffffffffff81111562000bf05762000bef620008c5565b5b62000bfe89828a0162000aca565b935050608087013567ffffffffffffffff81111562000c225762000c21620008c5565b5b62000c3089828a0162000aca565b92505060a062000c4389828a0162000b21565b9150509295509295509295565b600081519050919050565b600082825260208201905092915050565b6000819050602082019050919050565b62000c8781620008ea565b82525050565b600062000c9b838362000c7c565b60208301905092915050565b6000602082019050919050565b600062000cc18262000c50565b62000ccd818562000c5b565b935062000cda8362000c6c565b8060005b8381101562000d1157815162000cf5888262000c8d565b975062000d028362000ca7565b92505060018101905062000cde565b5085935050505092915050565b6000602082019050818103600083015262000d3a818462000cb4565b905092915050565b62000d4d8162000afd565b82525050565b600060608201905062000d6a600083018662000d42565b62000d79602083018562000d42565b62000d88604083018462000d42565b949350505050565b60006020828403121562000da95762000da8620008c0565b5b600062000db98482850162000b21565b91505092915050565b62000dcd81620008ea565b82525050565b600060208201905062000dea600083018462000dc2565b92915050565b600082825260208201905092915050565b7f4f6e6c792061646d696e2063616e2063616c6c20746869732066756e6374696f60008201527f6e2e000000000000000000000000000000000000000000000000000000000000602082015250565b600062000e5f60228362000df0565b915062000e6c8262000e01565b604082019050919050565b6000602082019050818103600083015262000e928162000e50565b9050919050565b600081519050919050565b60005b8381101562000ec457808201518184015260208101905062000ea7565b60008484015250505050565b600062000edd8262000e99565b62000ee9818562000df0565b935062000efb81856020860162000ea4565b62000f0681620009a5565b840191505092915050565b600060e082019050818103600083015262000f2d818a62000ed0565b905062000f3e602083018962000d42565b818103604083015262000f52818862000ed0565b9050818103606083015262000f68818762000ed0565b905062000f79608083018662000dc2565b62000f8860a083018562000d42565b81810360c083015262000f9c818462000ed0565b905098975050505050505050565b600060c082019050818103600083015262000fc6818962000ed0565b905062000fd7602083018862000d42565b62000fe6604083018762000dc2565b818103606083015262000ffa818662000ed0565b9050818103608083015262001010818562000ed0565b90506200102160a083018462000d42565b979650505050505050565b7f4e487b7100000000000000000000000000000000000000000000000000000000600052603260045260246000fd5b620010668162000961565b81146200107257600080fd5b50565b60008151905062001086816200105b565b92915050565b600060208284031215620010a557620010a4620008c0565b5b6000620010b58482850162001075565b91505092915050565b7f4e487b7100000000000000000000000000000000000000000000000000000000600052601160045260246000fd5b6000620010fa8262000afd565b91507fffffffffffffffffffffffffffffffffffffffffffffffffffffffffffffffff82036200112f576200112e620010be565b5b600182019050919050565b6000815190506200114b8162000b07565b92915050565b6000602082840312156200116a5762001169620008c0565b5b60006200117a848285016200113a565b91505092915050565b6000620011908262000afd565b91506200119d8362000afd565b9250828201905080821115620011b857620011b7620010be565b5b9291505056fe60806040523480156200001157600080fd5b50604051620015fa380380620015fa83398181016040528101906200003791906200030e565b86600090816200004891906200067e565b508560018190555084600290816200006191906200067e565b5083600390816200007391906200067e565b5082600460006101000a81548173ffffffffffffffffffffffffffffffffffffffff021916908373ffffffffffffffffffffffffffffffffffffffff160217905550816006819055508060089081620000cd91906200067e565b505050505050505062000765565b6000604051905090565b600080fd5b600080fd5b600080fd5b600080fd5b6000601f19601f8301169050919050565b7f4e487b7100000000000000000000000000000000000000000000000000000000600052604160045260246000fd5b6200014482620000f9565b810181811067ffffffffffffffff821117156200016657620001656200010a565b5b80604052505050565b60006200017b620000db565b905062000189828262000139565b919050565b600067ffffffffffffffff821115620001ac57620001ab6200010a565b5b620001b782620000f9565b9050602081019050919050565b60005b83811015620001e4578082015181840152602081019050620001c7565b60008484015250505050565b60006200020762000201846200018e565b6200016f565b905082815260208101848484011115620002265762000225620000f4565b5b62000233848285620001c4565b509392505050565b600082601f830112620002535762000252620000ef565b5b815162000265848260208601620001f0565b91505092915050565b6000819050919050565b62000283816200026e565b81146200028f57600080fd5b50565b600081519050620002a38162000278565b92915050565b600073ffffffffffffffffffffffffffffffffffffffff82169050919050565b6000620002d682620002a9565b9050919050565b620002e881620002c9565b8114620002f457600080fd5b50565b6000815190506200030881620002dd565b92915050565b600080600080600080600060e0888a03121562000330576200032f620000e5565b5b600088015167ffffffffffffffff811115620003515762000350620000ea565b5b6200035f8a828b016200023b565b9750506020620003728a828b0162000292565b965050604088015167ffffffffffffffff811115620003965762000395620000ea565b5b620003a48a828b016200023b565b955050606088015167ffffffffffffffff811115620003c857620003c7620000ea565b5b620003d68a828b016200023b565b9450506080620003e98a828b01620002f7565b93505060a0620003fc8a828b0162000292565b92505060c088015167ffffffffffffffff81111562000420576200041f620000ea565b5b6200042e8a828b016200023b565b91505092959891949750929550565b600081519050919050565b7f4e487b7100000000000000000000000000000000000000000000000000000000600052602260045260246000fd5b600060028204905060018216806200049057607f821691505b602082108103620004a657620004a562000448565b5b50919050565b60008190508160005260206000209050919050565b60006020601f8301049050919050565b600082821b905092915050565b600060088302620005107fffffffffffffffffffffffffffffffffffffffffffffffffffffffffffffffff82620004d1565b6200051c8683620004d1565b95508019841693508086168417925050509392505050565b6000819050919050565b60006200055f6200055962000553846200026e565b62000534565b6200026e565b9050919050565b6000819050919050565b6200057b836200053e565b620005936200058a8262000566565b848454620004de565b825550505050565b600090565b620005aa6200059b565b620005b781848462000570565b505050565b5b81811015620005df57620005d3600082620005a0565b600181019050620005bd565b5050565b601f8211156200062e57620005f881620004ac565b6200060384620004c1565b8101602085101562000613578190505b6200062b6200062285620004c1565b830182620005bc565b50505b505050565b600082821c905092915050565b6000620006536000198460080262000633565b1980831691505092915050565b60006200066e838362000640565b9150826002028217905092915050565b62000689826200043d565b67ffffffffffffffff811115620006a557620006a46200010a565b5b620006b1825462000477565b620006be828285620005e3565b600060209050601f831160018114620006f65760008415620006e1578287015190505b620006ed858262000660565b8655506200075d565b601f1984166200070686620004ac565b60005b82811015620007305784890151825560018201915060208501945060208101905062000709565b868310156200075057848901516200074c601f89168262000640565b8355505b6001600288020188555050505b505050505050565b610e8580620007756000396000f3fe6080604052600436106100a75760003560e01c8063953b8fb811610064578063953b8fb81461019a578063d150f835146101c5578063d7557f18146101f0578063ed88c68e14610207578063ef430aa614610211578063f3ccaac01461023c576100a7565b806329dcb0cf146100ac5780633ccfd60b146100d75780634a79d50c146100ee578063597e1fb5146101195780637284e416146101445780638da5cb5b1461016f575b600080fd5b3480156100b857600080fd5b506100c1610267565b6040516100ce91906108ed565b60405180910390f35b3480156100e357600080fd5b506100ec61026d565b005b3480156100fa57600080fd5b506101036103e6565b6040516101109190610998565b60405180910390f35b34801561012557600080fd5b5061012e610474565b60405161013b91906109d5565b60405180910390f35b34801561015057600080fd5b50610159610487565b6040516101669190610998565b60405180910390f35b34801561017b57600080fd5b50610184610515565b6040516101919190610a31565b60405180910390f35b3480156101a657600080fd5b506101af61053b565b6040516101bc91906108ed565b60405180910390f35b3480156101d157600080fd5b506101da610541565b6040516101e791906108ed565b60405180910390f35b3480156101fc57600080fd5b50610205610547565b005b61020f6106bc565b005b34801561021d57600080fd5b506102266107b8565b6040516102339190610998565b60405180910390f35b34801561024857600080fd5b50610251610846565b60405161025e9190610998565b60405180910390f35b60065481565b600460009054906101000a900473ffffffffffffffffffffffffffffffffffffffff1673ffffffffffffffffffffffffffffffffffffffff163373ffffffffffffffffffffffffffffffffffffffff16146102fd576040517f08c379a00000000000000000000000000000000000000000000000000000000081526004016102f490610abe565b60405180910390fd5b60004711610340576040517f08c379a000000000000000000000000000000000000000000000000000000000815260040161033790610b2a565b60405180910390fd5b600047905060006005819055503373ffffffffffffffffffffffffffffffffffffffff166108fc829081150290604051600060405180830381858888f19350505050158015610393573d6000803e3d6000fd5b50423373ffffffffffffffffffffffffffffffffffffffff167f92ccf450a286a957af52509bc1c9939d1a6a481783e142e41e2499f0bb66ebc6836040516103db91906108ed565b60405180910390a350565b600080546103f390610b79565b80601f016020809104026020016040519081016040528092919081815260200182805461041f90610b79565b801561046c5780601f106104415761010080835404028352916020019161046c565b820191906000526020600020905b81548152906001019060200180831161044f57829003601f168201915b505050505081565b600760009054906101000a900460ff1681565b6003805461049490610b79565b80601f01602080910402602001604051908101604052809291908181526020018280546104c090610b79565b801561050d5780601f106104e25761010080835404028352916020019161050d565b820191906000526020600020905b8154815290600101906020018083116104f057829003601f168201915b505050505081565b600460009054906101000a900473ffffffffffffffffffffffffffffffffffffffff1681565b60015481565b60055481565b3373ffffffffffffffffffffffffffffffffffffffff1663429b62e5600460009054906101000a900473ffffffffffffffffffffffffffffffffffffffff166040518263ffffffff1660e01b81526004016105a29190610c09565b602060405180830381865afa1580156105bf573d6000803e3d6000fd5b505050506040513d601f19601f820116820180604052508101906105e39190610c55565b610622576040517f08c379a000000000000000000000000000000000000000000000000000000000815260040161061990610cf4565b60405180910390fd5b600760009054906101000a900460ff1615610672576040517f08c379a000000000000000000000000000000000000000000000000000000000815260040161066990610d60565b60405180910390fd5b6001600760006101000a81548160ff021916908315150217905550427f6cc09e7b5c3e49861ebe8f6867e1618fbfc14c8d0e968fde37c4243ca02a6f8360405160405180910390a2565b6006544210610700576040517f08c379a00000000000000000000000000000000000000000000000000000000081526004016106f790610dcc565b60405180910390fd5b600034905080600560008282546107179190610e1b565b9250508190555042813373ffffffffffffffffffffffffffffffffffffffff167fe6add99d06d9ad7fc456e746aa162eed6211c5002ef2dacdd67b8d2016822fba60405160405180910390a460065442106107b5576001600760006101000a81548160ff021916908315150217905550427f6cc09e7b5c3e49861ebe8f6867e1618fbfc14c8d0e968fde37c4243ca02a6f8360405160405180910390a25b50565b600880546107c590610b79565b80601f01602080910402602001604051908101604052809291908181526020018280546107f190610b79565b801561083e5780601f106108135761010080835404028352916020019161083e565b820191906000526020600020905b81548152906001019060200180831161082157829003601f168201915b505050505081565b6002805461085390610b79565b80601f016020809104026020016040519081016040528092919081815260200182805461087f90610b79565b80156108cc5780601f106108a1576101008083540402835291602001916108cc565b820191906000526020600020905b8154815290600101906020018083116108af57829003601f168201915b505050505081565b6000819050919050565b6108e7816108d4565b82525050565b600060208201905061090260008301846108de565b92915050565b600081519050919050565b600082825260208201905092915050565b60005b83811015610942578082015181840152602081019050610927565b60008484015250505050565b6000601f19601f8301169050919050565b600061096a82610908565b6109748185610913565b9350610984818560208601610924565b61098d8161094e565b840191505092915050565b600060208201905081810360008301526109b2818461095f565b905092915050565b60008115159050919050565b6109cf816109ba565b82525050565b60006020820190506109ea60008301846109c6565b92915050565b600073ffffffffffffffffffffffffffffffffffffffff82169050919050565b6000610a1b826109f0565b9050919050565b610a2b81610a10565b82525050565b6000602082019050610a466000830184610a22565b92915050565b7f4f6e6c7920746865206f776e65722063616e2063616c6c20746869732066756e60008201527f6374696f6e2e0000000000000000000000000000000000000000000000000000602082015250565b6000610aa8602683610913565b9150610ab382610a4c565b604082019050919050565b60006020820190508181036000830152610ad781610a9b565b9050919050565b7f4e6f2066756e647320617661696c61626c6520746f2077697468647261772e00600082015250565b6000610b14601f83610913565b9150610b1f82610ade565b602082019050919050565b60006020820190508181036000830152610b4381610b07565b9050919050565b7f4e487b7100000000000000000000000000000000000000000000000000000000600052602260045260246000fd5b60006002820490506001821680610b9157607f821691505b602082108103610ba457610ba3610b4a565b5b50919050565b6000819050919050565b6000610bcf610bca610bc5846109f0565b610baa565b6109f0565b9050919050565b6000610be182610bb4565b9050919050565b6000610bf382610bd6565b9050919050565b610c0381610be8565b82525050565b6000602082019050610c1e6000830184610bfa565b92915050565b600080fd5b610c32816109ba565b8114610c3d57600080fd5b50565b600081519050610c4f81610c29565b92915050565b600060208284031215610c6b57610c6a610c24565b5b6000610c7984828501610c40565b91505092915050565b7f4f6e6c792061646d696e2063616e2063616c6c20746869732066756e6374696f60008201527f6e2e000000000000000000000000000000000000000000000000000000000000602082015250565b6000610cde602283610913565b9150610ce982610c82565b604082019050919050565b60006020820190508181036000830152610d0d81610cd1565b9050919050565b7f43616d706169676e20697320616c726561647920636c6f7365642e0000000000600082015250565b6000610d4a601b83610913565b9150610d5582610d14565b602082019050919050565b60006020820190508181036000830152610d7981610d3d565b9050919050565b7f43616d706169676e2068617320656e6465642100000000000000000000000000600082015250565b6000610db6601383610913565b9150610dc182610d80565b602082019050919050565b60006020820190508181036000830152610de581610da9565b9050919050565b7f4e487b7100000000000000000000000000000000000000000000000000000000600052601160045260246000fd5b6000610e26826108d4565b9150610e31836108d4565b9250828201905080821115610e4957610e48610dec565b5b9291505056fea2646970667358221220420afb81edcc80e522d71605553a8e65dea5f73944ab04d3783b35f38e86a6dd64736f6c63430008130033a2646970667358221220acc2fd8170f9d152a08a68e5c326c1c0d6e2f9850c34865fe43e655e7b18725d64736f6c63430008130033",
  "linkReferences": {},
  "deployedLinkReferences": {}
}